{
  "contractName": "Voting",
  "abi": [
    {
      "inputs": [],
      "stateMutability": "nonpayable",
      "type": "constructor"
    },
    {
      "anonymous": false,
      "inputs": [
        {
          "indexed": true,
          "internalType": "uint256",
          "name": "optionId",
          "type": "uint256"
        },
        {
          "indexed": false,
          "internalType": "string",
          "name": "name",
          "type": "string"
        }
      ],
      "name": "OptionAdded",
      "type": "event"
    },
    {
      "anonymous": false,
      "inputs": [
        {
          "indexed": true,
          "internalType": "address",
          "name": "previousOwner",
          "type": "address"
        },
        {
          "indexed": true,
          "internalType": "address",
          "name": "newOwner",
          "type": "address"
        }
      ],
      "name": "OwnershipTransferred",
      "type": "event"
    },
    {
      "anonymous": false,
      "inputs": [
        {
          "indexed": true,
          "internalType": "uint256",
          "name": "optionId",
          "type": "uint256"
        },
        {
          "indexed": true,
          "internalType": "address",
          "name": "voter",
          "type": "address"
        }
      ],
      "name": "VotedEvent",
      "type": "event"
    },
    {
      "anonymous": false,
      "inputs": [
        {
          "indexed": true,
          "internalType": "address",
          "name": "voterAddress",
          "type": "address"
        }
      ],
      "name": "VoterRegistered",
      "type": "event"
    },
    {
      "inputs": [
        {
          "internalType": "uint256",
          "name": "",
          "type": "uint256"
        }
      ],
      "name": "options",
      "outputs": [
        {
          "internalType": "uint256",
          "name": "id",
          "type": "uint256"
        },
        {
          "internalType": "string",
          "name": "name",
          "type": "string"
        },
        {
          "internalType": "uint256",
          "name": "voteCount",
          "type": "uint256"
        }
      ],
      "stateMutability": "view",
      "type": "function",
      "constant": true
    },
    {
      "inputs": [],
      "name": "optionsCount",
      "outputs": [
        {
          "internalType": "uint256",
          "name": "",
          "type": "uint256"
        }
      ],
      "stateMutability": "view",
      "type": "function",
      "constant": true
    },
    {
      "inputs": [],
      "name": "owner",
      "outputs": [
        {
          "internalType": "address",
          "name": "",
          "type": "address"
        }
      ],
      "stateMutability": "view",
      "type": "function",
      "constant": true
    },
    {
      "inputs": [
        {
          "internalType": "address",
          "name": "",
          "type": "address"
        }
      ],
      "name": "registeredVoters",
      "outputs": [
        {
          "internalType": "bool",
          "name": "",
          "type": "bool"
        }
      ],
      "stateMutability": "view",
      "type": "function",
      "constant": true
    },
    {
      "inputs": [
        {
          "internalType": "address",
          "name": "",
          "type": "address"
        }
      ],
      "name": "votersWhoVoted",
      "outputs": [
        {
          "internalType": "bool",
          "name": "",
          "type": "bool"
        }
      ],
      "stateMutability": "view",
      "type": "function",
      "constant": true
    },
    {
      "inputs": [
        {
          "internalType": "address",
          "name": "newOwner",
          "type": "address"
        }
      ],
      "name": "transferOwnership",
      "outputs": [],
      "stateMutability": "nonpayable",
      "type": "function"
    },
    {
      "inputs": [
        {
          "internalType": "address",
          "name": "_voterAddress",
          "type": "address"
        }
      ],
      "name": "registerVoter",
      "outputs": [],
      "stateMutability": "nonpayable",
      "type": "function"
    },
    {
      "inputs": [
        {
          "internalType": "string",
          "name": "_name",
          "type": "string"
        }
      ],
      "name": "addOption",
      "outputs": [],
      "stateMutability": "nonpayable",
      "type": "function"
    },
    {
      "inputs": [
        {
          "internalType": "uint256",
          "name": "_optionId",
          "type": "uint256"
        }
      ],
      "name": "vote",
      "outputs": [],
      "stateMutability": "nonpayable",
      "type": "function"
    },
    {
      "inputs": [
        {
          "internalType": "uint256",
          "name": "_optionId",
          "type": "uint256"
        }
      ],
      "name": "getOption",
      "outputs": [
        {
          "internalType": "uint256",
          "name": "id",
          "type": "uint256"
        },
        {
          "internalType": "string",
          "name": "name",
          "type": "string"
        },
        {
          "internalType": "uint256",
          "name": "voteCount",
          "type": "uint256"
        }
      ],
      "stateMutability": "view",
      "type": "function",
      "constant": true
    },
    {
      "inputs": [
        {
          "internalType": "address",
          "name": "_voterAddress",
          "type": "address"
        }
      ],
      "name": "isVoterRegistered",
      "outputs": [
        {
          "internalType": "bool",
          "name": "",
          "type": "bool"
        }
      ],
      "stateMutability": "view",
      "type": "function",
      "constant": true
    },
    {
      "inputs": [
        {
          "internalType": "address",
          "name": "_voterAddress",
          "type": "address"
        }
      ],
      "name": "hasVoterVoted",
      "outputs": [
        {
          "internalType": "bool",
          "name": "",
          "type": "bool"
        }
      ],
      "stateMutability": "view",
      "type": "function",
      "constant": true
    }
  ],
  "bytecode": "0x608060405234801561001057600080fd5b50336000806101000a81548173ffffffffffffffffffffffffffffffffffffffff021916908373ffffffffffffffffffffffffffffffffffffffff16021790555060008054906101000a900473ffffffffffffffffffffffffffffffffffffffff1673ffffffffffffffffffffffffffffffffffffffff16600073ffffffffffffffffffffffffffffffffffffffff167f8be0079c531659141344cd1fd0a4f28419497f9722a3daafe3b4186f6b6457e060405160405180910390a36118ed806100db6000396000f3fe608060405234801561001057600080fd5b50600436106100b45760003560e01c8063a9ff6df111610071578063a9ff6df114610191578063d5bca74d146101c1578063eb2119db146101f1578063edc550dc14610221578063f2fde38b1461023d578063fd11f97a14610259576100b4565b80630121b93f146100b95780631a1dbabb146100d55780631ce5e9a6146100f357806338db6dd314610125578063409e2205146101415780638da5cb5b14610173575b600080fd5b6100d360048036038101906100ce9190610d4e565b610289565b005b6100dd6104be565b6040516100ea9190610d8a565b60405180910390f35b61010d60048036038101906101089190610d4e565b6104c4565b60405161011c93929190610e35565b60405180910390f35b61013f600480360381019061013a9190610ed1565b6105d9565b005b61015b60048036038101906101569190610d4e565b610801565b60405161016a93929190610e35565b60405180910390f35b61017b6108b3565b6040516101889190610f0d565b60405180910390f35b6101ab60048036038101906101a69190610ed1565b6108d7565b6040516101b89190610f43565b60405180910390f35b6101db60048036038101906101d69190610ed1565b6108f7565b6040516101e89190610f43565b60405180910390f35b61020b60048036038101906102069190610ed1565b610917565b6040516102189190610f43565b60405180910390f35b61023b60048036038101906102369190611093565b61096d565b005b61025760048036038101906102529190610ed1565b610af4565b005b610273600480360381019061026e9190610ed1565b610cae565b6040516102809190610f43565b60405180910390f35b600460003373ffffffffffffffffffffffffffffffffffffffff1673ffffffffffffffffffffffffffffffffffffffff16815260200190815260200160002060009054906101000a900460ff16610315576040517f08c379a000000000000000000000000000000000000000000000000000000000815260040161030c90611128565b60405180910390fd5b600360003373ffffffffffffffffffffffffffffffffffffffff1673ffffffffffffffffffffffffffffffffffffffff16815260200190815260200160002060009054906101000a900460ff16156103a2576040517f08c379a000000000000000000000000000000000000000000000000000000000815260040161039990611194565b60405180910390fd5b6000811180156103b457506002548111155b6103f3576040517f08c379a00000000000000000000000000000000000000000000000000000000081526004016103ea90611200565b60405180910390fd5b60016000828152602001908152602001600020600201600081548092919061041a9061124f565b91905055506001600360003373ffffffffffffffffffffffffffffffffffffffff1673ffffffffffffffffffffffffffffffffffffffff16815260200190815260200160002060006101000a81548160ff0219169083151502179055503373ffffffffffffffffffffffffffffffffffffffff16817fef0a8c30b864cd88d58d772c577afd36560b80a69c4eea26d684aa68cca2b1e560405160405180910390a350565b60025481565b60006060600080841180156104db57506002548411155b61051a576040517f08c379a000000000000000000000000000000000000000000000000000000000815260040161051190611309565b60405180910390fd5b6000600160008681526020019081526020016000209050806000015481600101826002015481805461054b90611358565b80601f016020809104026020016040519081016040528092919081815260200182805461057790611358565b80156105c45780601f10610599576101008083540402835291602001916105c4565b820191906000526020600020905b8154815290600101906020018083116105a757829003601f168201915b50505050509150935093509350509193909250565b60008054906101000a900473ffffffffffffffffffffffffffffffffffffffff1673ffffffffffffffffffffffffffffffffffffffff163373ffffffffffffffffffffffffffffffffffffffff1614610667576040517f08c379a000000000000000000000000000000000000000000000000000000000815260040161065e906113d5565b60405180910390fd5b600073ffffffffffffffffffffffffffffffffffffffff168173ffffffffffffffffffffffffffffffffffffffff16036106d6576040517f08c379a00000000000000000000000000000000000000000000000000000000081526004016106cd90611467565b60405180910390fd5b600460008273ffffffffffffffffffffffffffffffffffffffff1673ffffffffffffffffffffffffffffffffffffffff16815260200190815260200160002060009054906101000a900460ff1615610763576040517f08c379a000000000000000000000000000000000000000000000000000000000815260040161075a906114d3565b60405180910390fd5b6001600460008373ffffffffffffffffffffffffffffffffffffffff1673ffffffffffffffffffffffffffffffffffffffff16815260200190815260200160002060006101000a81548160ff0219169083151502179055508073ffffffffffffffffffffffffffffffffffffffff167fb6be2187d059cc2a55fe29e0e503b566e1e0f8c8780096e185429350acffd3dd60405160405180910390a250565b600160205280600052604060002060009150905080600001549080600101805461082a90611358565b80601f016020809104026020016040519081016040528092919081815260200182805461085690611358565b80156108a35780601f10610878576101008083540402835291602001916108a3565b820191906000526020600020905b81548152906001019060200180831161088657829003601f168201915b5050505050908060020154905083565b60008054906101000a900473ffffffffffffffffffffffffffffffffffffffff1681565b60046020528060005260406000206000915054906101000a900460ff1681565b60036020528060005260406000206000915054906101000a900460ff1681565b6000600460008373ffffffffffffffffffffffffffffffffffffffff1673ffffffffffffffffffffffffffffffffffffffff16815260200190815260200160002060009054906101000a900460ff169050919050565b60008054906101000a900473ffffffffffffffffffffffffffffffffffffffff1673ffffffffffffffffffffffffffffffffffffffff163373ffffffffffffffffffffffffffffffffffffffff16146109fb576040517f08c379a00000000000000000000000000000000000000000000000000000000081526004016109f2906113d5565b60405180910390fd5b6000815111610a3f576040517f08c379a0000000000000000000000000000000000000000000000000000000008152600401610a3690611565565b60405180910390fd5b60026000815480929190610a529061124f565b9190505550604051806060016040528060025481526020018281526020016000815250600160006002548152602001908152602001600020600082015181600001556020820151816001019081610aa99190611731565b50604082015181600201559050506002547f17d54b10d2f5efe6c5653d2c3f373803d477ce9962212280331f14843d8983fb82604051610ae99190611803565b60405180910390a250565b60008054906101000a900473ffffffffffffffffffffffffffffffffffffffff1673ffffffffffffffffffffffffffffffffffffffff163373ffffffffffffffffffffffffffffffffffffffff1614610b82576040517f08c379a0000000000000000000000000000000000000000000000000000000008152600401610b79906113d5565b60405180910390fd5b600073ffffffffffffffffffffffffffffffffffffffff168173ffffffffffffffffffffffffffffffffffffffff1603610bf1576040517f08c379a0000000000000000000000000000000000000000000000000000000008152600401610be890611897565b60405180910390fd5b8073ffffffffffffffffffffffffffffffffffffffff1660008054906101000a900473ffffffffffffffffffffffffffffffffffffffff1673ffffffffffffffffffffffffffffffffffffffff167f8be0079c531659141344cd1fd0a4f28419497f9722a3daafe3b4186f6b6457e060405160405180910390a3806000806101000a81548173ffffffffffffffffffffffffffffffffffffffff021916908373ffffffffffffffffffffffffffffffffffffffff16021790555050565b6000600360008373ffffffffffffffffffffffffffffffffffffffff1673ffffffffffffffffffffffffffffffffffffffff16815260200190815260200160002060009054906101000a900460ff169050919050565b6000604051905090565b600080fd5b600080fd5b6000819050919050565b610d2b81610d18565b8114610d3657600080fd5b50565b600081359050610d4881610d22565b92915050565b600060208284031215610d6457610d63610d0e565b5b6000610d7284828501610d39565b91505092915050565b610d8481610d18565b82525050565b6000602082019050610d9f6000830184610d7b565b92915050565b600081519050919050565b600082825260208201905092915050565b60005b83811015610ddf578082015181840152602081019050610dc4565b60008484015250505050565b6000601f19601f8301169050919050565b6000610e0782610da5565b610e118185610db0565b9350610e21818560208601610dc1565b610e2a81610deb565b840191505092915050565b6000606082019050610e4a6000830186610d7b565b8181036020830152610e5c8185610dfc565b9050610e6b6040830184610d7b565b949350505050565b600073ffffffffffffffffffffffffffffffffffffffff82169050919050565b6000610e9e82610e73565b9050919050565b610eae81610e93565b8114610eb957600080fd5b50565b600081359050610ecb81610ea5565b92915050565b600060208284031215610ee757610ee6610d0e565b5b6000610ef584828501610ebc565b91505092915050565b610f0781610e93565b82525050565b6000602082019050610f226000830184610efe565b92915050565b60008115159050919050565b610f3d81610f28565b82525050565b6000602082019050610f586000830184610f34565b92915050565b600080fd5b600080fd5b7f4e487b7100000000000000000000000000000000000000000000000000000000600052604160045260246000fd5b610fa082610deb565b810181811067ffffffffffffffff82111715610fbf57610fbe610f68565b5b80604052505050565b6000610fd2610d04565b9050610fde8282610f97565b919050565b600067ffffffffffffffff821115610ffe57610ffd610f68565b5b61100782610deb565b9050602081019050919050565b82818337600083830152505050565b600061103661103184610fe3565b610fc8565b90508281526020810184848401111561105257611051610f63565b5b61105d848285611014565b509392505050565b600082601f83011261107a57611079610f5e565b5b813561108a848260208601611023565b91505092915050565b6000602082840312156110a9576110a8610d0e565b5b600082013567ffffffffffffffff8111156110c7576110c6610d13565b5b6110d384828501611065565b91505092915050565b7f4e6f206573746173207265676973747261646f207061726120766f7461722e00600082015250565b6000611112601f83610db0565b915061111d826110dc565b602082019050919050565b6000602082019050818103600083015261114181611105565b9050919050565b7f59612068617320656d697469646f20747520766f746f2e000000000000000000600082015250565b600061117e601783610db0565b915061118982611148565b602082019050919050565b600060208201905081810360008301526111ad81611171565b9050919050565b7f4f7063696f6e20646520766f746f206e6f2076616c6964612e00000000000000600082015250565b60006111ea601983610db0565b91506111f5826111b4565b602082019050919050565b60006020820190508181036000830152611219816111dd565b9050919050565b7f4e487b7100000000000000000000000000000000000000000000000000000000600052601160045260246000fd5b600061125a82610d18565b91507fffffffffffffffffffffffffffffffffffffffffffffffffffffffffffffffff820361128c5761128b611220565b5b600182019050919050565b7f4f7063696f6e20646520766f746f206e6f2076616c696461207061726120676560008201527f744f7074696f6e2e000000000000000000000000000000000000000000000000602082015250565b60006112f3602883610db0565b91506112fe82611297565b604082019050919050565b60006020820190508181036000830152611322816112e6565b9050919050565b7f4e487b7100000000000000000000000000000000000000000000000000000000600052602260045260246000fd5b6000600282049050600182168061137057607f821691505b60208210810361138357611382611329565b5b50919050565b7f4e6f206572657320656c2070726f706965746172696f2e000000000000000000600082015250565b60006113bf601783610db0565b91506113ca82611389565b602082019050919050565b600060208201905081810360008301526113ee816113b2565b9050919050565b7f4c6120646972656363696f6e2064656c20766f74616e7465206e6f207075656460008201527f6520736572206c6120646972656363696f6e206365726f2e0000000000000000602082015250565b6000611451603883610db0565b915061145c826113f5565b604082019050919050565b6000602082019050818103600083015261148081611444565b9050919050565b7f4573746520766f74616e74652079612065737461207265676973747261646f2e600082015250565b60006114bd602083610db0565b91506114c882611487565b602082019050919050565b600060208201905081810360008301526114ec816114b0565b9050919050565b7f456c206e6f6d627265206465206c61206f7063696f6e206e6f2070756564652060008201527f657374617220766163696f2e0000000000000000000000000000000000000000602082015250565b600061154f602c83610db0565b915061155a826114f3565b604082019050919050565b6000602082019050818103600083015261157e81611542565b9050919050565b60008190508160005260206000209050919050565b60006020601f8301049050919050565b600082821b905092915050565b6000600883026115e77fffffffffffffffffffffffffffffffffffffffffffffffffffffffffffffffff826115aa565b6115f186836115aa565b95508019841693508086168417925050509392505050565b6000819050919050565b600061162e61162961162484610d18565b611609565b610d18565b9050919050565b6000819050919050565b61164883611613565b61165c61165482611635565b8484546115b7565b825550505050565b600090565b611671611664565b61167c81848461163f565b505050565b5b818110156116a057611695600082611669565b600181019050611682565b5050565b601f8211156116e5576116b681611585565b6116bf8461159a565b810160208510156116ce578190505b6116e26116da8561159a565b830182611681565b50505b505050565b600082821c905092915050565b6000611708600019846008026116ea565b1980831691505092915050565b600061172183836116f7565b9150826002028217905092915050565b61173a82610da5565b67ffffffffffffffff81111561175357611752610f68565b5b61175d8254611358565b6117688282856116a4565b600060209050601f83116001811461179b5760008415611789578287015190505b6117938582611715565b8655506117fb565b601f1984166117a986611585565b60005b828110156117d1578489015182556001820191506020850194506020810190506117ac565b868310156117ee57848901516117ea601f8916826116f7565b8355505b6001600288020188555050505b505050505050565b6000602082019050818103600083015261181d8184610dfc565b905092915050565b7f456c206e7565766f2070726f706965746172696f206e6f20707565646520736560008201527f72206c6120646972656363696f6e206365726f2e000000000000000000000000602082015250565b6000611881603483610db0565b915061188c82611825565b604082019050919050565b600060208201905081810360008301526118b081611874565b905091905056fea26469706673582212207b72b1f48a6e3c32e3254284b85f70aadc8f944553bf69ac98cc83363c7237de64736f6c63430008130033",
  "immutableReferences": {},
  "source": " // SPDX-License-Identifier: MIT\npragma solidity >=0.8.0 <0.9.0;\n\n/**\n * @title Voting\n * @dev Un contrato inteligente para un sistema de votacion con registro de votantes.\n */\ncontract Voting {\n    address public owner;\n\n    // Estructura para representar una opcion de voto (candidato)\n    struct Option {\n        uint256 id;\n        string name;\n        uint256 voteCount;\n    }\n\n    // Mapping para almacenar las opciones de voto por su ID\n    mapping(uint256 => Option) public options;\n    // Contador para generar IDs unicos para las opciones\n    uint256 public optionsCount;\n\n    // Mapping para rastrear si una direccion ya ha votado\n    mapping(address => bool) public votersWhoVoted; // Renombrado de 'voters' para claridad\n    mapping(address => bool) public registeredVoters;\n\n    // Evento que se emite cuando se emite un voto\n    event VotedEvent(uint256 indexed optionId, address indexed voter);\n    // Evento que se emite cuando se agrega una nueva opcion\n    event OptionAdded(uint256 indexed optionId, string name);\n    event VoterRegistered(address indexed voterAddress);\n    event OwnershipTransferred(address indexed previousOwner, address indexed newOwner);\n\n    modifier onlyOwner() {\n        require(msg.sender == owner, \"No eres el propietario.\");\n        _;\n    }\n\n    /**\n     * @dev Constructor que puede inicializar con algunas opciones.\n     * Por ahora, las opciones se agregaran a traves de una funcion.\n     */\n    constructor() {\n        owner = msg.sender;\n        emit OwnershipTransferred(address(0), owner);\n        // Podriamos anadir opciones por defecto aqui si quisieramos\n        // addOption(\"Opcion A\");\n        // addOption(\"Opcion B\");\n    }\n\n    /**\n     * @dev Transfiere la propiedad del contrato a una nueva cuenta.\n     * Solo puede ser llamado por el propietario actual.\n     */\n    function transferOwnership(address newOwner) public onlyOwner {\n        require(newOwner != address(0), \"El nuevo propietario no puede ser la direccion cero.\");\n        emit OwnershipTransferred(owner, newOwner);\n        owner = newOwner;\n    }\n\n    /**\n     * @dev Registra una direccion para que pueda votar.\n     * Solo puede ser llamado por el propietario.\n     * @param _voterAddress La direccion a registrar.\n     */\n    function registerVoter(address _voterAddress) public onlyOwner {\n        require(_voterAddress != address(0), \"La direccion del votante no puede ser la direccion cero.\");\n        require(!registeredVoters[_voterAddress], \"Este votante ya esta registrado.\");\n        registeredVoters[_voterAddress] = true;\n        emit VoterRegistered(_voterAddress);\n    }\n\n    /**\n     * @dev Permite al propietario agregar una nueva opcion de voto.\n     * @param _name El nombre de la opcion.\n     */\n    function addOption(string memory _name) public onlyOwner { // Restringido a onlyOwner\n        require(bytes(_name).length > 0, \"El nombre de la opcion no puede estar vacio.\");\n        optionsCount++;\n        options[optionsCount] = Option(optionsCount, _name, 0);\n        emit OptionAdded(optionsCount, _name);\n    }\n\n    /**\n     * @dev Permite a un votante registrado emitir un voto.\n     * @param _optionId El ID de la opcion por la que se vota.\n     */\n    function vote(uint256 _optionId) public {\n        require(registeredVoters[msg.sender], \"No estas registrado para votar.\");\n        require(!votersWhoVoted[msg.sender], \"Ya has emitido tu voto.\");\n        require(_optionId > 0 && _optionId <= optionsCount, \"Opcion de voto no valida.\");\n\n        options[_optionId].voteCount++;\n        votersWhoVoted[msg.sender] = true;\n        emit VotedEvent(_optionId, msg.sender);\n    }\n\n    /**\n     * @dev Obtiene los detalles de una opcion de voto.\n     * @param _optionId El ID de la opcion.\n     * @return id El ID de la opcion.\n     * @return name El nombre de la opcion.\n     * @return voteCount El conteo de votos de la opcion.\n     */\n    function getOption(uint256 _optionId) public view returns (uint256 id, string memory name, uint256 voteCount) {\n        require(_optionId > 0 && _optionId <= optionsCount, \"Opcion de voto no valida para getOption.\");\n        Option storage optionData = options[_optionId];\n        return (optionData.id, optionData.name, optionData.voteCount);\n    }\n\n    /**\n     * @dev Verifica si una direccion especifica esta registrada para votar.\n     */\n    function isVoterRegistered(address _voterAddress) public view returns (bool) {\n        return registeredVoters[_voterAddress];\n    }\n\n    /**\n     * @dev Verifica si una direccion especifica ya ha votado.\n     */\n    function hasVoterVoted(address _voterAddress) public view returns (bool) {\n        return votersWhoVoted[_voterAddress];\n    }\n}",
  "sourcePath": "/Users/lucasbloise/Desktop/blockchain/voting_system/contracts/Voting.sol",
  "compiler": {
    "name": "solc",
    "version": "0.8.19+commit.7dd6d404.Emscripten.clang"
  },
  "schemaVersion": "3.4.16",
  "updatedAt": "2025-05-06T22:10:01.871Z",
  "networkType": "ethereum",
  "devdoc": {
    "details": "Un contrato inteligente para un sistema de votacion con registro de votantes.",
    "kind": "dev",
    "methods": {
      "addOption(string)": {
        "details": "Permite al propietario agregar una nueva opcion de voto.",
        "params": {
          "_name": "El nombre de la opcion."
        }
      },
      "constructor": {
        "details": "Constructor que puede inicializar con algunas opciones. Por ahora, las opciones se agregaran a traves de una funcion."
      },
      "getOption(uint256)": {
        "details": "Obtiene los detalles de una opcion de voto.",
        "params": {
          "_optionId": "El ID de la opcion."
        },
        "returns": {
          "id": "El ID de la opcion.",
          "name": "El nombre de la opcion.",
          "voteCount": "El conteo de votos de la opcion."
        }
      },
      "hasVoterVoted(address)": {
        "details": "Verifica si una direccion especifica ya ha votado."
      },
      "isVoterRegistered(address)": {
        "details": "Verifica si una direccion especifica esta registrada para votar."
      },
      "registerVoter(address)": {
        "details": "Registra una direccion para que pueda votar. Solo puede ser llamado por el propietario.",
        "params": {
          "_voterAddress": "La direccion a registrar."
        }
      },
      "transferOwnership(address)": {
        "details": "Transfiere la propiedad del contrato a una nueva cuenta. Solo puede ser llamado por el propietario actual."
      },
      "vote(uint256)": {
        "details": "Permite a un votante registrado emitir un voto.",
        "params": {
          "_optionId": "El ID de la opcion por la que se vota."
        }
      }
    },
    "title": "Voting",
    "version": 1
  },
  "userdoc": {
    "kind": "user",
    "methods": {},
    "version": 1
  }
}